{
  "contractName": "UICBuilding",
  "abi": [
    {
      "constant": true,
      "inputs": [],
      "name": "totalBuildings",
      "outputs": [
        {
          "name": "",
          "type": "uint256"
        }
      ],
      "payable": false,
      "stateMutability": "view",
      "type": "function",
      "signature": "0x3ba5c722"
    },
    {
      "constant": true,
      "inputs": [
        {
          "name": "",
          "type": "uint256"
        }
      ],
      "name": "building",
      "outputs": [
        {
          "name": "buildingName",
          "type": "string"
        },
        {
          "name": "buildingNumber",
          "type": "string"
        },
        {
          "name": "buildingAddress",
          "type": "string"
        }
      ],
      "payable": false,
      "stateMutability": "view",
      "type": "function",
      "signature": "0x66ad3ffc"
    },
    {
      "inputs": [],
      "payable": false,
      "stateMutability": "nonpayable",
      "type": "constructor",
      "signature": "constructor"
    },
    {
      "constant": false,
      "inputs": [
        {
          "name": "_buildingName",
          "type": "string"
        },
        {
          "name": "_buildingNumber",
          "type": "string"
        },
        {
          "name": "_buildingAddress",
          "type": "string"
        }
      ],
      "name": "addBuilding",
      "outputs": [],
      "payable": false,
      "stateMutability": "nonpayable",
      "type": "function",
      "signature": "0x9f0d8253"
    },
    {
      "constant": true,
      "inputs": [
        {
          "name": "index",
          "type": "uint256"
        }
      ],
      "name": "getBuilindingAddress",
      "outputs": [
        {
          "components": [
            {
              "name": "buildingName",
              "type": "string"
            },
            {
              "name": "buildingNumber",
              "type": "string"
            },
            {
              "name": "buildingAddress",
              "type": "string"
            }
          ],
          "name": "",
          "type": "tuple"
        }
      ],
      "payable": false,
      "stateMutability": "view",
      "type": "function",
      "signature": "0x7b325b9c"
    }
  ],
  "bytecode": "0x608060405234801561001057600080fd5b50336000806101000a81548173ffffffffffffffffffffffffffffffffffffffff021916908373ffffffffffffffffffffffffffffffffffffffff160217905550610a62806100606000396000f3fe608060405260043610610062576000357c0100000000000000000000000000000000000000000000000000000000900463ffffffff1680633ba5c7221461006757806366ad3ffc146100925780637b325b9c146100d15780639f0d82531461010e575b600080fd5b34801561007357600080fd5b5061007c610137565b6040516100899190610942565b60405180910390f35b34801561009e57600080fd5b506100b960048036036100b49190810190610808565b61013d565b6040516100c8939291906108d4565b60405180910390f35b3480156100dd57600080fd5b506100f860048036036100f39190810190610808565b61032f565b6040516101059190610920565b60405180910390f35b34801561011a57600080fd5b5061013560048036036101309190810190610771565b610543565b005b60025481565b6001602052806000526040600020600091509050806000018054600181600116156101000203166002900480601f0160208091040260200160405190810160405280929190818152602001828054600181600116156101000203166002900480156101e95780601f106101be576101008083540402835291602001916101e9565b820191906000526020600020905b8154815290600101906020018083116101cc57829003601f168201915b505050505090806001018054600181600116156101000203166002900480601f0160208091040260200160405190810160405280929190818152602001828054600181600116156101000203166002900480156102875780601f1061025c57610100808354040283529160200191610287565b820191906000526020600020905b81548152906001019060200180831161026a57829003601f168201915b505050505090806002018054600181600116156101000203166002900480601f0160208091040260200160405190810160405280929190818152602001828054600181600116156101000203166002900480156103255780601f106102fa57610100808354040283529160200191610325565b820191906000526020600020905b81548152906001019060200180831161030857829003601f168201915b5050505050905083565b610337610640565b6001600083815260200190815260200160002060606040519081016040529081600082018054600181600116156101000203166002900480601f0160208091040260200160405190810160405280929190818152602001828054600181600116156101000203166002900480156103ef5780601f106103c4576101008083540402835291602001916103ef565b820191906000526020600020905b8154815290600101906020018083116103d257829003601f168201915b50505050508152602001600182018054600181600116156101000203166002900480601f0160208091040260200160405190810160405280929190818152602001828054600181600116156101000203166002900480156104915780601f1061046657610100808354040283529160200191610491565b820191906000526020600020905b81548152906001019060200180831161047457829003601f168201915b50505050508152602001600282018054600181600116156101000203166002900480601f0160208091040260200160405190810160405280929190818152602001828054600181600116156101000203166002900480156105335780601f1061050857610100808354040283529160200191610533565b820191906000526020600020905b81548152906001019060200180831161051657829003601f168201915b5050505050815250509050919050565b6000809054906101000a900473ffffffffffffffffffffffffffffffffffffffff1673ffffffffffffffffffffffffffffffffffffffff163373ffffffffffffffffffffffffffffffffffffffff1614151561059e57600080fd5b6002600081548092919060010191905055506060604051908101604052808481526020018381526020018281525060016000600254815260200190815260200160002060008201518160000190805190602001906105fd929190610662565b50602082015181600101908051906020019061061a929190610662565b506040820151816002019080519060200190610637929190610662565b50905050505050565b6060604051908101604052806060815260200160608152602001606081525090565b828054600181600116156101000203166002900490600052602060002090601f016020900481019282601f106106a357805160ff19168380011785556106d1565b828001600101855582156106d1579182015b828111156106d05782518255916020019190600101906106b5565b5b5090506106de91906106e2565b5090565b61070491905b808211156107005760008160009055506001016106e8565b5090565b90565b600082601f830112151561071a57600080fd5b813561072d6107288261098a565b61095d565b9150808252602083016020830185838301111561074957600080fd5b6107548382846109d5565b50505092915050565b600061076982356109cb565b905092915050565b60008060006060848603121561078657600080fd5b600084013567ffffffffffffffff8111156107a057600080fd5b6107ac86828701610707565b935050602084013567ffffffffffffffff8111156107c957600080fd5b6107d586828701610707565b925050604084013567ffffffffffffffff8111156107f257600080fd5b6107fe86828701610707565b9150509250925092565b60006020828403121561081a57600080fd5b60006108288482850161075d565b91505092915050565b600061083c826109b6565b8084526108508160208601602086016109e4565b61085981610a17565b602085010191505092915050565b600060608301600083015184820360008601526108848282610831565b9150506020830151848203602086015261089e8282610831565b915050604083015184820360408601526108b88282610831565b9150508091505092915050565b6108ce816109c1565b82525050565b600060608201905081810360008301526108ee8186610831565b905081810360208301526109028185610831565b905081810360408301526109168184610831565b9050949350505050565b6000602082019050818103600083015261093a8184610867565b905092915050565b600060208201905061095760008301846108c5565b92915050565b6000604051905081810181811067ffffffffffffffff8211171561098057600080fd5b8060405250919050565b600067ffffffffffffffff8211156109a157600080fd5b601f19601f8301169050602081019050919050565b600081519050919050565b6000819050919050565b6000819050919050565b82818337600083830152505050565b60005b83811015610a025780820151818401526020810190506109e7565b83811115610a11576000848401525b50505050565b6000601f19601f830116905091905056fea265627a7a723058200dbc0992b24030016af048f9328cc38a54a833b94d3be4f5177ff2d300642fbd6c6578706572696d656e74616cf50037",
  "source": "pragma solidity >=0.4.22 <0.6.0;\r\npragma experimental ABIEncoderV2;\r\ncontract UICBuilding {\r\n    \r\n    address  owner;\r\n    mapping(uint => Building) public building;\r\n    uint public totalBuildings;\r\n    \r\n    modifier onlyOwner {\r\n        require (msg.sender == owner);\r\n        _;\r\n    }\r\n    struct Building{\r\n        string buildingName;\r\n        string buildingNumber;\r\n        string buildingAddress;\r\n    }\r\n    \r\n    constructor ()  public {\r\n        owner = msg.sender;\r\n    }\r\n    function addBuilding(string memory _buildingName, string memory _buildingNumber, string memory _buildingAddress) public onlyOwner{\r\n        totalBuildings++;\r\n        building[totalBuildings] = Building(_buildingName, _buildingNumber, _buildingAddress);\r\n    }\r\n    function getBuilindingAddress(uint index) view public returns (Building memory){\r\n        return building[index];\r\n    }\r\n}",
  "sourcePath": "C:/Users/deexi/freshBlock/contracts/UICBuilding.sol",
  "compiler": {
    "name": "solc",
    "version": "0.5.0+commit.1d4f565a.Emscripten.clang"
  },
  "schemaVersion": "3.0.8",
  "updatedAt": "2019-04-26T04:39:15.776Z",
  "devdoc": {
    "methods": {}
  },
  "userdoc": {
    "methods": {}
  }
}